:1000000078DE0120D5AC00000DAB0000D1AC0000C3
:10001000D1AC0000D1AC0000D1AC0000D1AC0000EC
:100020000000000000000000000000001D5500005E
:10003000D1AC000000000000355500009D550000C7
:10004000896A0000BD6A0000F16A0000156B0000BB
:100050002DA40000A1A30000BDA4000005A5000080
:100060002DA40000A1A30000BDA4000005A5000070
:100070000348044B834202D0034B03B11847704737
:10008000940700209407002000000000064B074959
:10009000C91A891048BF0131491003D0044B0BB174
:1000A00001481847704700BF9407002094070020BC
:1000B0000000000010B5064C237843B9FFF7D8FFC5
:1000C000044B13B10448AFF300800123237010BD2B
:1000D000B007002000000000E0DF000008B5054B7D
:1000E0001BB105490548AFF30080BDE80840FFF7A4
:1000F000CDBF00BF00000000B4070020E0DF00001B
:100100002DE9F0410446D0E902854068A8EB0507D7
:1001100097422844154408D80E463A46A5EB0805F0
:100120000CF0AEFD2A466068F1190CF0A9FDBFF392
:100130005F8FE560BDE8F0812DE9F8434FF00009DD
:10014000064688461746D0E902243369151B9C42AF
:1001500003F1FF3125BF03F1FF339B180B1B1B1B62
:10016000BD4228BF3D469D4228BF1D46706841469E
:100170002A4620440CF084FDB2682C44A24208BFF9
:100180000024A944A8447F1BBFF35F8FF460002FB5
:10019000DBD14846BDE8F883F8B5164CA82200210B
:1001A00020460CF05DFD4FF4006600230321102073
:1001B000114A124F124D21616161A261E76126620D
:1001C000A3626362E36222666566A0662367E366F4
:1001D0006367BFF35F8F0B4B9C46A3F11000ACEB42
:1001E000030213F9011D8342A154F8D1BFF35F8FBD
:1001F000F8BD00BFDC0F0020A0D50000DC07002008
:10020000CC070020C0DC000038B5214B00EB4004D7
:1002100003EBC40EDEF82C40013000EB4000012C53
:100220008C46154603EBC00015D0022C0FD034BB12
:10023000DEF82830DEF8242093429CBFDEF8201040
:100240005B18013B9A1A95421CD9204638BDBDE87F
:100250003840FFF771BFDEF82830DEF82440A342B3
:100260009CBFDEF820105B18013B1C1B944228BF8A
:10027000144661462246FFF743FF204638BD00245E
:10028000204638BD2A466146FFF73AFF2C46DCE798
:10029000DC0F0020F8B50B4B04461B780D461646C4
:1002A0006BB1EFF311874FF0200181F311883246D3
:1002B00029462046FFF7A8FF87F31188F8BDFFF70E
:1002C0006BFFEEE7DC0F002010B50446D0E90132E9
:1002D000501C984207D8236899540246E168636825
:1002E0000131C4E902019A4200D010BD21682069A1
:1002F000FFF7D0FFA368984215BF4FF0FF330023EC
:10030000E360A36010BD00BF2DE9F84F91420F4696
:10031000DDE90A94154683461E4668D30B464FF026
:100320000108B3FBF5F39D4208F10108F9D9B04586
:1003300038BFB04614F0010A02D1B9F1000F3DD127
:10034000DBF80C30002B29DB012402E005FB04F470
:10035000013E012EFAD8B7FBF4F39D4205D805FB08
:1003600004F4B7FBF4F39D42F9D9224E06E0AC4207
:10037000B4FBF5F30CD31C46B7FBF3F3F156584628
:1003800004FB1377FFF7A0FFDBF80C30002BEEDA4D
:10039000BAF1000F02D0B9F1000F09D1BDE8F88F12
:1003A00020215846FFF790FFDBF80C30002BF5DBDF
:1003B000C14509F1FF39F3D8BDE8F88FA30711D47F
:1003C00020240CE021465846FFF77EFFDBF80C3076
:1003D00009F1FF39002BE1DBB9F1000FB2D0C145C3
:1003E000F0D8ADE7002E0CBF30242024F7E74FF003
:1003F00001089CE7C4DC00002DE9F04F00234FF416
:100400000074ADF50B7D0DF1280A059481460C466C
:100410001746CDE90633CDF810A0089006E004A8F1
:10042000FFF752FF079B002BC0F2AD8014F9011BB0
:10043000002900F0A0802529F1D10026234613F9D8
:10044000012BA2F123010D2908D8DFE801F07F0775
:100450000707070707077B0783070777A2F1300124
:10046000C9B209294FF000050FD805EB850502EB4D
:10047000450593F900201C46A2F13001C9B20929B3
:10048000A5F1300503F10103EFD92E2A00F0FC801D
:100490004FF0000B94F9001021F0040068281C466E
:1004A0005CD02529BBD05839CBB2202BBAD8202913
:1004B000B8D801A353F821F09105000025040000ED
:1004C0002504000025040000250400002504000088
:1004D0002504000025040000250400002504000078
:1004E00025040000750600000D060000250400002C
:1004F0002504000025040000250400002504000058
:100500002504000025040000250400002504000047
:100510002504000025040000D50500002504000086
:1005200025040000AD05000025040000F3050000CF
:100530002504000025040000910500001C4646F03B
:1005400002067BE71C4646F0040677E71C4646F0A9
:10055000080673E71C4646F001066FE714F9011B15
:1005600021F00403682B9CD114F9011B21F0040332
:10057000682B96D1F2E7079B002B04DD069C002C2C
:1005800040F09B80234418460DF50B7DBDE8F08FAD
:10059000102239685B46081D386009680DEB0200BF
:1005A000CDE90056FFF7B0FE079B3CE73B681A1DFC
:1005B0003A601D6815F9011B00293FF433AF04A808
:1005C000FFF782FE079B002BF4DA18460DF50B7D32
:1005D000BDE8F08F08230020102239680D1D3D6012
:1005E0000968CDE900300DEB0200FFF78DFE079B97
:1005F00019E739685B46081D386009680A22CDE9A9
:10060000005604A8FFF780FE079B0CE73B684FF0FD
:100610000108191D39601B681A46039383EAE373C6
:10062000A3EBE273092B09DD56481946A0FB03C36F
:10063000632908F101084FEAD303F6DCD84538BF37
:10064000D846002D42D10025079B002B9BDB039B46
:10065000002B63DB73076CD406F00303022B71D00D
:100660005B460A22CDE90056039904A8FFF74CFE29
:10067000079BD8E63B6804A81A1D3A6093F900105E
:10068000FFF722FE079BCEE694F90110A1F130029C
:10069000D2B2092A52D81C464FF0000B0BEB8B024A
:1006A00001EB420214F9011FA2F1300BA1F130035A
:1006B000DBB2092BF2D9631CEEE6224651464846CE
:1006C0000393FFF7E7FD039B23445CE7039A06F0DF
:1006D0000203002A18DB720716D4002B48D0BBF1A6
:1006E000000F0FD0F0070BD50CE0202104A8FFF776
:1006F000EBFD079B013D002BFFF645AF002DA4D07D
:10070000A845F2D3079BA0E7013D13B1BBF1000F51
:10071000F8D0F207F6D4002DF2D194E75B422D21F8
:1007200004A80393FFF7D0FD079B002BFFF62BAF28
:1007300092E72B2104A8FFF7C7FDF5E74FF0000B68
:100740000133A9E6BBF1000F8AD1002D88D04545C1
:1007500015D9302104A8FFF7B7FD079B013D002BF9
:10076000FFF611AF002DF2D1002BFFF60CAF77E7AB
:10077000F107C5D5079B002BBFF672AF03E7079BB8
:10078000F2E700BFCDCCCCCC0EB400B582B003AB49
:1007900053F8041B01AA0193FFF72EFE02B05DF887
:1007A00004EB03B0704700BF2DE9F04F03788DB024
:1007B00083F080021F2A29D90F4606460C4600F115
:1007C000010E07F8013B1E2B27D8DFE813F0790252
:1007D0006602E801E2016F021102F2002600D90070
:1007E00031022C02260026002600260026003D01AC
:1007F0000F01FF01F4013C02AF0094008D00860060
:100800007F00780072006B0032002B0001F002FACA
:10081000054628460DB0BDE8F08FFF234FF00115C7
:100820000B70F6E73946704602F0E8FC00F101155E
:10083000EFE700236370437801F1020A5C1E811C1C
:10084000002B00F073874FF0010B05265F468846AA
:10085000744D0EE0524641466E6402F067FE04B9E4
:100860006E640137C8444F44631E002C00F09C8224
:100870001C4618F8010B10F03F0916BF09F10709D3
:100880004FF008094FEAD9090306E3D50023524681
:1008900041466B6402F04AFE04B96E640137CA44F3
:1008A000CB44E1E73946704602F0E6FC00F1011561
:1008B000AFE7384602F050FC00F10115A9E73946D0
:1008C000704602F0F1FB00F10115A2E739467046CF
:1008D00002F0CEFB00F101159BE73946704602F0AD
:1008E000A3FB00F1011594E73946704602F084FB42
:1008F00000F101158DE74C4B1A78022A40F059821D
:100900004278997EDA76914240F253820E2001F0CD
:10091000F7FB01F0F5F90023020A6370A070030CE5
:10092000000E424DE2702371607172E747783E49D4
:10093000831C8F76DFB101F11B05AE4628464FF0D0
:10094000000CBA1C2231164413F8012BB34200F8F4
:10095000012F21F802CF9444F6D1354BE9191EF846
:10096000012FACEB020C8E4523F802CFF7D1002308
:100970007D1C2D0445F0010505F10115637048E764
:10098000294B1A78012A00F02B82022A40F01D829E
:100990004278997EDA76914240F21782082001F07F
:1009A000AFFBD6F8020001F065FA00236370214D19
:1009B0002FE7DFF8748098F800A0BAF1010F00F07B
:1009C0000786BAF1020F00F0928500230321A4F8F4
:1009D0000130E37033799B0757BF738841F480215E
:1009E000013341EA834101F1011512E7D0F80130EA
:1009F000002B00F0ED81104A934200F276860F4AF8
:100A000000201A44B2FBF3F2022A0FBF01230C4B61
:100A1000A3FB023253080022034948704B60094D82
:100A20006270F6E600080840881000200600020008
:100A3000BA100020020006003F787D017FF0FA0224
:100A4000ABAAAAAA020005008378427813F0010637
:100A5000D0F803000CD0AC4DD707A96C21F00111E0
:100A600021F440414CBF41F0050141F00401A9646B
:100A700013F0020E0CD0A44D9707696C21F0011100
:100A800021F440414CBF41F0050141F0040169648B
:100A900013F004080BD09C4FC2F38001FD6C25F0CD
:100AA000011525F44045294341F00401F96413F090
:100AB00020090BD0944FC2F340113D6D25F0011574
:100AC00025F44045294341F0040139655BB2002B10
:100AD000C0F2368100283CD08C49DFF848C2550965
:100AE000DCF80470814203954FEAD21528BF014615
:100AF000029564201D4600FB01F173464FEA520A3D
:100B000096464FEA920B804842460194A846002E32
:100B100040F00A81002B40F0E6802AB1C56CC5F395
:100B20004005AB4540F01C81B9F1000F06D0056DC2
:100B3000039CC5F34005AC4240F01281B8F1000FB0
:100B400006DA056F029CC5F34005AC4240F008810F
:100B5000019C6D4A6E4D916C536CD06C03F0020396
:100B6000C0F34000C1F3400143EA80030B43D2F8D5
:100B70000811C1F3400143EAC103116D126FC1F3C3
:100B8000400143EA4113C2F3400243EAC2136370D7
:100B90003FE600235F4A604D13704B7039E643789F
:100BA000012B40F20881022B00F0048600234FF055
:100BB000021563702DE64378564803F00301C3F332
:100BC00080020131002301764276F0E74078B11CC3
:100BD000002800F0FF80C51DED0801352D0445F00B
:100BE000010505F1011502F065FC0023637010E6B4
:100BF000DFF8208198F80030012B099300F0FA808B
:100C0000022B00F085828278C31C3AB900F056BFEF
:100C1000C90606D40133013A00F0328519788807F5
:100C2000F6D40533F7E700233C4DA1F80130F0E599
:100C3000B0F8013003EB03135B00013BFDD100234F
:100C4000374D6370E5E500234B7046788F1C851C9B
:100C5000002E00F06B854FF0010AD04615F8019B7D
:100C60003A4619F03F0404F1070408BF0824294656
:100C7000484618BFE40800F0D3FF19F0800F04F1D4
:100C800001031CBF3F19A244013E25449844E5D10D
:100C90004AEA084505F10115BBE54378002B00F051
:100CA0000984012B00F0EA83FF23C9E70022417881
:100CB000184B19734188198281885982627076E6CF
:100CC0004278042A00F0AC85EF2A45D9F03A0F2A81
:100CD00042D8DFE802F0666441414141414141416F
:100CE000414141554F5D019C456CC5F34005AA4506
:100CF00074D00C4D6D68ED1BA9427FF62AAF002E13
:100D0000F2D0019411E000BF00080840C0C62D00D9
:100D1000020007008810002002000100030001000B
:100D200002000300001000E0019C856CC5F3400543
:100D3000AE4545D0DCF80450ED1BA942F5D808E7D4
:100D4000A84D296F21F0011121F4404141EAD2114F
:100D500041F004012967BDE64FF00215637058E5C4
:100D6000DCF80450ED1BA9427FF6F2AE002E3FF4F2
:100D7000D1AED9E7FF2201239B4DA270637048E5F5
:100D80004FF480520423994DC4F80220637040E56B
:100D90004FF040020223964D6280637039E5954A18
:100DA000F0E74FF07702F5E74BEA074505F101154B
:100DB0002FE5FF23FBE601228F4913460A70F6E672
:100DC0000194002B3FF4A9AE8DE7FF236370EEE59D
:100DD000FF2224E64FF48070884D04E701949CE6DE
:100DE000D0F802300BA900200B9302F011FC002375
:100DF0006370DCE50023824D82780331019200F1BB
:100E0000030C06912B70002A00F087869A46CDE9E4
:100E1000027E079305930494644614F801BB1BF00B
:100E2000020F00F0A780B8F81060BAF1000F29D0C7
:100E30000BF01103012B674608D181E0002E00F072
:100E400034842B78013E002B40F03F840E200BA908
:100E500002F0DEFB0228F1D0BC4603464FF0000A48
:100E6000012B40F09F8606990B9A084640F8042B08
:100E7000BAF1000F00F03C811BF0800F40F02C8491
:100E8000534606901BF01000B8F810600BF00102FA
:100E900000F0A180DCF80190B8F812E00CF1050434
:100EA000A2B1774607E0002E00F02B812B78013E9F
:100EB000002B40F01F810021584602F0A9FB0228B8
:100EC000F1D00128BE46034640F077867746B8F851
:100ED000106005E0002E3CD02B78013E002B38D16D
:100EE00058460BA902F094FB02280246F2D0D8F82B
:100EF00014300B9E012803EA060340F0068699454C
:100F000000F0B9831FB12B78013F002BDFD02146C1
:100F1000DDE9027E1123049C019A04E0C00605D499
:100F20000131013A48D008788607F7D40531F8E74F
:100F3000002E00F0B1832B78013E002B40F0AC83F3
:100F400058460BA902F064FB0228F1D0BC460346C8
:100F500086E70346DDE9027E10462146DDF82CC017
:100F6000049CD8F814200CEA02024A4540F0DA85C5
:100F7000019AD8E7BAF1000F40F08080DCF8013028
:100F80001BF0200F0CF1050C0B9300F09180C8F8BA
:100F900014304FF0000A0123059A013205922A7895
:100FA000002A40F0DB84019A013A01927FF434AFC9
:100FB0006146DDE9027E049C012B00F0A984069ABB
:100FC000A1EB0E01D51B059A45EA01456270A3709D
:100FD00005F101151DE4DAB1BAF1000F3BD0A446CA
:100FE0000790D9E70008084003000200060002004D
:100FF0000400020000E1F505881000200200220034
:1010000084100020002E7CD02B78013E002B71D163
:1010100058460BA902F0FCFA0228F3D00128034637
:1010200040F0C0851BF0800F05D00698D8F8082046
:1010300040F8042B069006980B9AA44640F8042B1F
:10104000002206900792A7E7002E00F09E842B78DE
:10105000013E002B4ED10021584602F0D9FA022859
:10106000F2D00128034640F09D851BF0800F40F030
:101070007C840022A446824607928DE76746B8F832
:10108000106004E0002E3CD02B78013E93BB0E2074
:101090000BA902F0BDFA0228F4D00128BC46034691
:1010A00040F08085069A0B9B42F8043B069265E768
:1010B000B8F810A06646544607E0002C00F02D83D7
:1010C0002B78013C002B40F01F8358460BA902F0FF
:1010D0009FFA0228F1D00128B446034640F07485F7
:1010E0001BF0800F40F0E7824FF0000A079053E7B3
:1010F0000690C7E62146DDE9027E0346049C019A7C
:1011000011E72146DDE9027E0346019A049C0AE7C5
:101110000022437898F81A10A94D994288F81B309C
:101120002A7040F28B83837803360193002B00F002
:101130000A85CDE9047E924631464746E31C029279
:101140000793884618F8019B09F0010000F10A0393
:1011500019F0020F039300F0F780BAF1000F00F0CE
:10116000028193423E8A40F0218119F0100F40F035
:101170001D81A34606913446164607E0002C00F078
:101180001D832A78013C002A40F0188348460BA9A9
:1011900001F0D4F90228F1D032465C4606990128C4
:1011A00040F0E784DDF81CC00B98664609F0100398
:1011B00046F8040BBAF1000F5CD019F0800F40F034
:1011C000EF820796002B58D14146029B28780133C5
:1011D0000293002840F03D84019B013B0193B0D174
:1011E000DDF814E0B846A1EB0E06049F9DF808B0A8
:1011F00003923604039B0A2B02D00A2000F080FFE2
:10120000B8F81080BAF1000F22D00DF12C0906E0D9
:10121000B8F1000F23D02B7808F1FF38FBB949460D
:101220000E2001F08BF90228F2D0012816D1079B7D
:101230000B9A099043F8042BDD1B354305F101158A
:1012400012E0B8F1000F09D02B7808F1FF382BB964
:1012500000210E2001F072F90228F2D00990079BBC
:10126000DD1B354305F10115099B84F801B0A3701E
:10127000FFF7CFBA0796002B78D0D1F80130B7F836
:1012800012B00693039B01F105089A4202D018465A
:1012900000F036FF3E8A07E0002E00F09F822B7898
:1012A000013E002B40F093820021484601F046F9B0
:1012B0000228F1D0012840F0918208943C460BAE00
:1012C000278A03E07FB32B78013F63BB3146484652
:1012D00001F034F902280246F4D067690B9B01281B
:1012E00007EA030740F02484069BBB4200F0A38278
:1012F000BBF1000F04D02B780BF1FF3B002BDFD0AC
:101300004146DDE9047EA0461120089C019B05E0D2
:10131000D60606D40131013B00F028820A789607F0
:10132000F6D40531F7E74146DDE9047EA046DDF855
:101330002CC0089CD8F814300CEA030C069B9C4582
:1013400040F00884019BE9E7BAF1000F4DD1D1F8D4
:10135000010019F0200F01F105010B9068D04FF04A
:10136000000A786131E719F0100F86D1039B9A4289
:1013700002D0184600F0C4FE3E8A07E0002E00F0BE
:10138000B8812B78013E002B40F0B3810021484604
:1013900001F0D4F80228F1D00128824640F0D08331
:1013A00019F0800F40F03482039A0DE70A2A00F00A
:1013B00060810A20069100F0A3FE06998A4609E0A2
:1013C00084100020002E00F0B5812B78013E002B08
:1013D00040F0BC810E200BA901F0B0F80228F1D03A
:1013E00051460A224FF0000AD9E60A2A04D00A2000
:1013F000069100F085FE06998B463E8A07E0002E96
:1014000000F02E812B78013E002B40F029810E2028
:101410000BA901F093F80228F1D00128594640F0B9
:101420001F8107980B9A40F8042B07900A228EE739
:101430000398824203D0069100F062FE0699B7F845
:1014400010A08846564607E0002E00F0D8812B7881
:10145000013E002B40F0C98148460BA901F06EF80F
:101460000228F1D00128414640F0A38319F0800FF3
:1014700040F08D814FF0000A039AA6E6B84B1A8817
:10148000012A7FF6DCAB5B68B6485A88B378110A4C
:10149000090151FA82F250F8221003F0010321F001
:1014A000011121F440410B4343F0040340F8223082
:1014B000FFF7C5BBAA4A1388022B7FF6C0AB83781F
:1014C0005268DB439288A748110A090151FA82F257
:1014D00050F8221003F0010321F0011121F44041E2
:1014E0000B4343F0040340F82230FFF7A8BB00226F
:1014F000437898F81A109C4D994288F81B302A704E
:1015000040F2A0814388002B00F03B8290F804B0A9
:1015100001930BF0010202F10A031846049300F054
:10152000EFFD1BF00202019B40F03882711DCDE9F6
:101530000164CDF80CA046468A46144698460DF143
:101540002C095AF8040B378A0B9003E0B7B32B78B9
:10155000013F9BBB4946584600F0F0FF0228F5D0FA
:10156000012840F0FD82B8F1010804F10104E8D13E
:10157000049B22460A2BB046029C019E04D00A20FE
:10158000019200F0BDFD019AB8F81070904603E09A
:101590004FB12B78013F33B900210E2000F0CEFF70
:1015A00002288246F4D003215FFA88F3C8F30722A9
:1015B0006370A27084F803A0FFF70CBA2246DDF82E
:1015C0000CA0D3B20321DDE90164C2F30722EFE7E7
:1015D0000023654D41882B70002900F0948190F81C
:1015E00004B0B8F810301BF0020240F02F81CDE9B2
:1015F0000104924644468846471D0DF12C0957F8D0
:10160000043B268A0B9303E03EB32A78013E22BBBB
:101610004946584601F0FCFF0228F5D001281CD1AC
:10162000B8F101080AF1010AE9D1A046019EB8F813
:101630001070029CD04603E047B12B78013F2BB9D4
:1016400000210E2001F0E4FF0228F5D0824603219C
:101650005FFA88F3C8F30722AAE752468246B0E74A
:101660000A2341460393B846DDF814E0049F019B2A
:1016700054E68A46AEE600220346A44607928BE46F
:10168000A3EB0E052D0445F0020505F1011500231D
:10169000A4F80130FFF7BDB8D146DDE9027E21464E
:1016A000049CCA460223019A3DE42146DDE9027EFC
:1016B000B146049CF5E70699D8F808204FF0000AD7
:1016C00041F8042BCDE9061066E42146DDE9027EEF
:1016D0004FF00009049CE4E7D8F808304B6001F1B2
:1016E000080306935346FFF7CDBB01200346FFF7DF
:1016F00092B98246DDF814E041465046B8464FF0B4
:10170000000A049F019B09E60346DDE9027E31469B
:101710004FF0000A049C019A05E4A246DDE9027E2E
:1017200003463146049C019AFFF7FDBB4FF00215BA
:10173000FFF76FB8B3460A224146DDF814E0B84619
:10174000049FDA460220019B0392E7E541460A2204
:10175000B8464FF0000BDDF814E0049FF1E700BF3E
:10176000000000200008084084100020A1EB0E06B5
:1017700001289DF808B04FEA06463FF43BAD079BB1
:10178000DD1B3543C3B2099305F101156CE5079ED6
:10179000B8684FF0000A46F8040B039A079614E560
:1017A000B868CCF804000CF108000790002B3FF457
:1017B0000BAD62E5B74A1370FFF7F9B941465C46D5
:1017C000B8463246D346DDF814E0049FB9E74146F7
:1017D000DDF814E0B846019B049F9FE54146DDF823
:1017E00014E0B846019B049F98E54646DDF814E0F6
:1017F000B84631464FF0000A049F019B8EE5B24681
:101800004646DDF814E0B8463146049F019B85E565
:10181000079EB868414646F8040B039A0796D4E43D
:1018200006239D4A9D4D10689288C1F80200CA8027
:101830006370FEF7EEBF2746089CB5E59346984DCA
:10184000099211E5924603211346B1E61BF0010F00
:101850001AD0994643460191A0464C46994607E066
:10186000002C00F033812A78013C002A40F02E81C0
:101870000021584601F0CCFE0228F1D00128444650
:101880000199C84640F07E81002201F1FF3C211DF4
:101890000197CDF810A0474602960394E2460E4603
:1018A0001446A8460DF12C09BAF1000F04D11BF023
:1018B000010F18BF4FF00E0B3D8A04E0C5B198F838
:1018C0000030013DA3B94946584601F0A1FE022867
:1018D000F4D0012840F05B810B9B013446F8043BB7
:1018E0000AF1FF33BAF1000F00F0DC809A46DBE723
:1018F00022463146DDE90264019FD3B28246C91B0C
:10190000C2F3072254E68A460321524653464FE665
:10191000BAF1000F00F0A580B8F810608A46F046D2
:101920000DF12C0907E0002E00F0CB802B78013E52
:10193000002B40F0C68049460E2001F069FE0228C7
:101940000346F0D00128C64651467FF438AB069ACC
:101950000B9842F8040B0692FFF731BB6146DDE9B4
:10196000027E049C019AFFF7DEBA0698D8F8082098
:10197000A44640F8042B00229A4606900792FFF7EF
:101980000BBB9A4603211A4612E62146DDE9027E88
:101990000346B246049C019AFFF7C5BA0193434639
:1019A000B8F81090A0464C46994607E0002C00F08D
:1019B0009B802A78013C002A40F091800021584603
:1019C00000F0BCFD0228F1D001284446019BC84626
:1019D00040F0D8804FF0000C013B211D0197CDF85D
:1019E00014A00296DA460F46E3461E460DF12C0976
:1019F00003942EB3B8F8104003E0ACB12B78013C4F
:101A000093B94946504600F099FD0228F5D00128C7
:101A100084466FD10B9C0BF1010B47F8044B701EF1
:101A2000002E67D00646E4E73946DDE90264019FEF
:101A3000DDF814A0C91B5FFA8BF3CBF30722B7E5DF
:101A4000049B0A2B02D00A2000F05AFB4FF00E0A2A
:101A5000D0E7B8460120DDF814E0049F019B039213
:101A60005CE4079A002A3FF4AAAAB8F810608946F5
:101A7000F04603E086B32B78013E6BBB00210E20BD
:101A800001F0C6FD02280346F4D0C6464946FFF7DA
:101A900096BA00BF88100020D4DC000008000200C5
:101AA0000300020022463146DDE90264019FD3B201
:101AB000DDF810A0C91BC2F3072279E54FF003152A
:101AC000E5E5C64651460223FFF779BA00224446AF
:101AD0000321824613466BE5C6464946F3E70022DA
:101AE00044460321134663E5A146032144464A4682
:101AF0004B465DE53946DDE90176E246039CC91BAC
:101B00005FFA8BF3CBF3072252E52146DDE9027E33
:101B10000346B446049CFFF724BA019B6146059333
:101B2000FFF74DBA40F01000019AC3B2FFF7FBB9BE
:101B30004146DDE9047EA0469C46089CFFF7FABBBF
:101B4000DDF814E0D8E5019B4FF003159B4609939F
:101B5000FFF78ABB42F01002019BD0B2FFF7DEBB59
:101B60002246DDE90164D3B282460321C2F3072293
:101B70001EE54146DDF814E0B846019B049F039240
:101B8000FFF7CCBB002282460321134610E5224614
:101B90003146DDE90264019FD3B28246C91BC2F31C
:101BA000072205E52146DDE9027E019A049CFFF744
:101BB000BAB94646DDF814E01AE62146DDE9027EB0
:101BC000049C019AFFF7AFB93146DDE9027E4FF080
:101BD000000A049CFFF7CCB9F8B504787F2C03D039
:101BE000BDE8F840FEF7E0BD0D4605F8024B44782D
:101BF0004FF00217861C4C7054B129463046FEF750
:101C0000D3FD013C074406EB104615FA80F5F4D1EC
:101C10003846F8BD03461B784FF001100B70704733
:101C20002DE9F04F10F03F05924608BF4025884649
:101C300041065146AA462F4ADFF8C090536C2E4CFD
:101C400023F0011323F440434CBF43F0050343F05A
:101C500004035364274B83B000F08000D9F804508C
:101C60005646AAF1080CCDF804A04FF0000EAA4683
:101C70008B4618F8017B01E0002E2ED0DA6C07F0BD
:101C8000010122400A4342F00402DA649A6C514690
:101C9000224042F004029A640139FDD1D3F80821B0
:101CA0009D6C5146254045F00505C2F340029D64F8
:101CB0000139FDD13146013ED20166454FEA570751
:101CC00042EA5E0ED8D1594610B986B1B246C5E790
:101CD0005A4602F801EB1146F7E7DA46019D30B1AA
:101CE000C5F107050D442EFA05FE8AF800E003B0A1
:101CF000BDE8F08F00080840FE3FFEFF881000207E
:101D000030B5594B594C5A6C5949224042F00502A2
:101D10005A649A6C4868224042F004029A6402466F
:101D2000013AFDD19A6C224042F005029A640246C3
:101D3000013AFDD15A6C224042F004025A649A6C76
:101D4000224042F004029A640246013AFDD19A6CA4
:101D5000224042F005029A640246013AFDD19A6C93
:101D6000224042F004029A640246013AFDD19A6C84
:101D7000224042F005029A640246013AFDD1C97E32
:101D800089B19A6C0546224042F004029A64013DF2
:101D9000FDD19A6C0546224042F005029A64013D4D
:101DA000FDD10139EDD14FF01F0C4FF0000E2E493F
:101DB0002E4C8B6C0246234043F004038B64013AA3
:101DC000FDD1D1F808318A6C0546224042F0050267
:101DD000C3F340038A64013DFDD14EEAC373BCF1F5
:101DE000010C4FEA530EE4D14B6C234043F0050342
:101DF0004B648B6C234043F004038B640346013B2C
:101E0000FDD1D1F808218B6CC2F34002234043F08E
:101E100005038B640346013BFDD18B6C234043F0EB
:101E200004038B640346013BFDD18B6C234043F0DC
:101E300005038B640346013BFDD14B6C234043F00B
:101E400004034B648B6C234043F004038B64034610
:101E5000013BFDD18B6C234043F005038B640138BB
:101E6000FDD14EEAC27030BD00080840FE3FFEFFC3
:101E700088100020F0B57C4B7C4E5A6C7C4D324073
:101E800042F005025A649A6C8446324042F00402E1
:101E90009A6469680A46013AFDD19A6C324042F070
:101EA00005029A640A46013AFDD15A6C324042F06A
:101EB00004025A649A6C324042F004029A640A4660
:101EC000013AFDD19A6C324042F005029A640A460A
:101ED000013AFDD19A6C324042F004029A640A46FB
:101EE000013AFDD19A6C324042F005029A640A46EA
:101EF000013AFDD1EC7E20468CB19A6C0F463240FF
:101F000042F004029A64013FFDD19A6C0F463240C0
:101F100042F005029A64013FFDD10138EDD1524AE9
:101F20005248D36C034043F00403D364936C0340E2
:101F300043F0040393640B46013BFDD1936C0340D3
:101F400043F0050393640B46013BFDD1936C0340C2
:101F500043F0040393640B46013BFDD1936C0340B3
:101F600043F0050393640B46013BFDD1936C0340A2
:101F700043F0040393640B46013BFDD1936C034093
:101F800043F0050393640B46013BFDD14FF01F0E58
:101F9000D36C0CF001060340334343F00403D364D5
:101FA000936C0E46034043F004039364013EFDD15D
:101FB000936C0E46034043F005039364013EFDD14C
:101FC000BEF1010E4FEA5C0CE2D1AB7E0CF0010CCD
:101FD0001B1B012B76D0D46C044044EA0C0444F063
:101FE0000404D464946C044044F0040494640C46E7
:101FF000013CFDD1946C204040F005000C469064FB
:10200000013CFDD1981E13D0174A184D936C0C4615
:102010002B4043F004039364013CFDD1936C0C46C8
:102020002B4043F005039364013CFDD10138EDD111
:102030000D4B0E485A6C0C46024042F005025A64A1
:102040009A6C024042F004029A64013CFDD19A6C01
:102050000C46024042F005029A64013CFDD1024B5D
:10206000024A986C0C4605E000080840FE3FFEFF5F
:1020700088100020104040F004009864013CFDD11D
:10208000986C0C46104040F005009864013CFDD16E
:10209000586C0C46104040F004005864986C104096
:1020A00040F004009864013CFDD1986C104040F071
:1020B000050098640139FDD1D96C0A4042F005024F
:1020C000DA64F0BD536C0C46034043F005035364DF
:1020D000D36C034043EA0C0343F00403D364936CD2
:1020E000034043F004039364013CFDD1936C0C4620
:1020F000034043F005039364013CFDD1AFE700BF0B
:10210000F0B556494B7891F81BC0002B00F0AC801D
:10211000534B544C5A6C224042F005025A649A6C5C
:10212000224042F004029A649A6C224042F0050276
:102130009A649A6C224042F004029A649A6C22409B
:1021400042F005029A645A6C224042F004025A643A
:102150009A6C224042F004029A649A6C224042F047
:1021600005029A649A6C224042F004029A649A6CC6
:10217000224042F005029A64DA6C224042F00502E5
:10218000DA6401EB4C02958C6DB19A6C013D02EA68
:10219000040242F004029A649A6C02EA040242F0D9
:1021A00005029A64F1D101EB0C031C7F013C19D0AC
:1021B0002B4A2C4DD36C00F001062B40334343F0E7
:1021C0000403D364936C013C03EA050343F0040366
:1021D0009364936C4FEA500003EA050343F0050350
:1021E0009364E7D101EB4C01898E00F001000029D6
:1021F00000F01E811A4A1B4CD36C013903EA040318
:1022000043EA000343F00403D364936C03EA04033A
:1022100043F004039364936C03EA040343F005035F
:102220009364D36C03EA040343F00503D3640DD035
:10223000936C013903EA040343F004039364936C41
:1022400003EA040343F005039364F1D1044B054909
:102250005A6C0A4042F005025A64F6E088100020E9
:1022600000080840FE3FFEFF6F4B704D5A6C2A403D
:1022700042F005025A649A6C2A4042F004029A64C1
:102280004A681446013CFDD19C6C2C4044F0050486
:102290009C641446013CFDD19C6C2C4044F0040429
:1022A0009C641446013CFDD19C6C2C4044F0050418
:1022B0009C641446013CFDD15C6C2C4044F0040449
:1022C0005C649C6C2C4044F004049C641446013C07
:1022D000FDD19C6C2C4044F005049C641446013CE8
:1022E000FDD19C6C2C4044F004049C641446013CD9
:1022F000FDD19C6C2C4044F005049C641446013CC8
:10230000FDD1DC6C2C4044F00504DC6401EB4C0492
:10231000A68C8EB19C6C17462C4044F004049C643F
:10232000013FFDD19C6C17462C4044F005049C6491
:10233000013FFDD1013EEDD101EB0C0393F81CE010
:10234000BEF1010E1ED0384C384DE36C00F0010692
:102350002B40334343F00403E364A36C16462B4045
:1023600043F00403A364013EFDD1A36C16462B4049
:1023700043F00503A364013EFDD1BEF1010E4FEA17
:102380005000E2D101EB4C018B8E00F00100002BDC
:1023900000F086802449254DCC6C2C40204340F031
:1023A0000400C864886C284040F00400886410462B
:1023B0000138FDD1886C284040F005008864104643
:1023C0000138FDD1C86C284040F00500C864581E93
:1023D00011D08B6C14462B4043F004038B64013CFA
:1023E000FDD18B6C14462B4043F005038B64013CFC
:1023F000FDD10138EDD10C4B0C48596C144601400D
:1024000041F005015964996C014041F0040199645F
:10241000013CFDD1996C1446014041F005019964DD
:10242000013CFDD159E000BF00080840FE3FFEFF1F
:10243000404B41495A6C0A4042F005025A64DA6C3A
:102440000A40024342F00402DA649A6C0A4042F005
:1024500004029A649A6C0A4042F005029A64354B71
:10246000354A996C114041F004019964996C11400E
:1024700041F005019964596C114041F0040159641F
:10248000996C114041F004019964996C114041F03C
:1024900005019964D96C0A4042F00502DA64F0BD86
:1024A000244B254C596C214041F005015964D96CED
:1024B0002140014341F00401D964996C1046214048
:1024C00041F0040199640138FDD1996C1046214016
:1024D00041F0050199640138FDD1164B1649986CFD
:1024E0001446084040F004009864013CFDD1986C0B
:1024F0001446084040F005009864013CFDD1586C3A
:102500001446084040F004005864986C084040F0BD
:1025100004009864013CFDD1986C084040F005002F
:102520009864013AFDD1DA6C0A4042F00502DA649F
:10253000F0BD00BF00080840FE3FFEFF2DE9F0435C
:102540006D4CE57E62782B46002A00F0DD806B4AF8
:102550006B4F566C3E4046F005065664966C3E4006
:1025600046F004069664966C3E4046F00506966476
:10257000566C3E4046F004065664966C3E4046F06B
:1025800004069664966C3E4046F005069664966C8A
:102590003E4046F004069664966C3E4046F00506C2
:1025A00096646DB1966C013B06EA070646F0040698
:1025B0009664966C06EA070646F005069664F1D125
:1025C0004E4B4F4EDF6CC0F3400237403A4342F06F
:1025D0000402DA649A6C324042F004029A64D3F83E
:1025E00008219F6C02F00202374047F005079F6404
:1025F000DF6C07EA060CC0F3800747EA0C0747F0D8
:102600000407DF649F6C374047F004079F64D3F8EA
:102610000871C7F3400C9F6C374047F005079F6473
:10262000DF6C07EA060EC0F3C00747EA0E0747F063
:102630000407DF649F6C374047F004079F64D3F8BA
:102640000871C7F3400742EA87024CEA020C9A6C11
:10265000BCF1010F02EA060242F005029A6400F0A2
:10266000F6815A6C324042F005025A649A6C32404C
:1026700042F004029A649A6C324042F005029A6475
:102680001E4B1F4A996C114041F004019964996CEA
:10269000114041F005019964596C114041F0040169
:1026A0005964996C114041F004019964996C11408E
:1026B00041F005019964D96C0A4042F00502DA64E0
:1026C000020602D50F4B5B68A360237B591E73B1D2
:1026D0000A4A0B48936C0139034043F004039364A6
:1026E000936C034043F0050393644B1CF2D15FFAF3
:1026F0008CF0BDE8F08300BF88100020000808407F
:10270000FE3FFEFF001000E0854EDFF818C2726C3D
:1027100002EA0C0242F005027264B26C02EA0C0298
:1027200042F00402B26462681746013FFDD1B76C03
:1027300007EA0C0747F00507B7641746013FFDD1CC
:10274000776C07EA0C0747F004077764B76C07EA71
:102750000C0747F00407B7641746013FFDD1B76C7B
:1027600007EA0C0747F00507B7641746013FFDD19C
:10277000B76C07EA0C0747F00407B7641746013F38
:10278000FDD1B76C07EA0C0747F00507B764174699
:10279000013FFDD19DB1B76C07EA0C0747F0040774
:1027A000B7641746013FFDD1B76C07EA0C0747F045
:1027B0000507B7641746013FFDD1013BEBD1584BEC
:1027C000584EDF6C07EA060CC0F3400747EA0C07D7
:1027D00047F00407DF649F6C374047F004079F64AD
:1027E0001746013FFDD1D3F80871C7F340089F6C2D
:1027F000374047F005079F641746013FFDD1DF6C66
:1028000007EA060CC0F3800747EA0C0747F0040705
:10281000DF649F6C374047F004079F641746013F11
:10282000FDD1D3F80871C7F3400C9F6C374047F0D7
:1028300005079F641746013FFDD1DF6C07EA060ECE
:10284000C0F3C00747EA0E0747F00407DF649F6C38
:10285000374047F004079F641746013FFDD1D3F886
:102860000871D3F848E0C7F340090EEA060E4EF0AF
:10287000050EC3F848E017469646013FFDD14FEAE2
:10288000890747EA48074CEA070CBCF1010F69D0F9
:10289000596C314041F005015964996C314041F067
:1028A0000401996411460139FDD1996C314041F020
:1028B000050199641346013BFDD1194B19499D6CE3
:1028C0000D4045F004059D641546013DFDD19D6C0C
:1028D0000D4045F005059D641546013DFDD15D6C3B
:1028E0000D4045F004055D649D6C0D4045F0040508
:1028F0009D641546013DFDD19D6C0D4045F00505DB
:102900009D641546013DFDD1DD6C294041F0050176
:10291000D96403060AD5044B5B68A36006E000BFD8
:1029200000080840FE3FFEFF001000E0207B00286A
:102930003FF4DDAE7349744D8B6C14462B4043F06D
:1029400004038B64013CFDD18B6C14462B4043F097
:1029500005038B64013CFDD10138EDD15FFA8CF0A9
:10296000BDE8F083870740F127814FF01F0E4FF03D
:1029700000089F6C374047F004079F641746013FEB
:10298000FDD1D3F80871C7F340099F6C374047F079
:1029900005079F641746013FFDD148EAC977BEF19C
:1029A000010E4FEA5708E4D1A77E7D1B012D00F0F0
:1029B0006E819F6C374047F004079F641746013FC4
:1029C000FDD1D3F80871D3F848E0C7F340070EEA09
:1029D000060646F005069E641346013BFDD1AE1E79
:1029E00016D0484DDFF820E1AB6C03EA0E0343F04C
:1029F0000403AB641346013BFDD1AB6C03EA0E0349
:102A000043F00503AB641346013BFDD1013EEBD11E
:102A10003C4B3D4E5D6C354045F005055D649D6C5D
:102A2000354045F004059D641546013DFDD19D6C82
:102A3000354045F005059D641346013BFDD1002955
:102A40003FF43BAF48EAC7770F60626835E7870716
:102A50005CD54FF01F0E4FF000089A6CBEF1010ECE
:102A600002EA060242F004029A64D3F808219F6C3D
:102A7000C2F3400207EA060747F0050748EAC272B8
:102A80009F644FEA5208E8D1A27E521B012A00F04F
:102A90001C819D6C354045F004059D64D3F80851B8
:102AA0009F6CC5F340053E4046F005069E64961EA9
:102AB0000FD0144A144F936C013E03EA070343F00E
:102AC00004039364936C03EA070343F005039364E0
:102AD000F1D10C4B0C4E5A6C324042F005025A6454
:102AE0009A6C324042F004029A649A6C324042F08E
:102AF00005029A6400293FF4C3AD48EAC5750D602C
:102B0000BEE500BF00080840FE3FFEFF1F27096822
:102B1000DA6C01F0010E324042EA0E0242F0040289
:102B2000DA649A6C013F02EA060242F004029A64F7
:102B30009A6C4FEA510102EA060242F005029A64D9
:102B4000E6D101F00107A17E4A1B012A00F0D180E5
:102B5000D96C3140394341F00401D964996C31405A
:102B600041F004019964996C314041F00501996488
:102B7000911E0FD0654A664D936C013903EA050337
:102B800043F004039364936C03EA050343F00503E5
:102B90009364F1D15D4B5E495A6C0A4042F00502E4
:102BA0005A649A6C0A4042F004029A649A6C0A4091
:102BB00042F005029A6463E54FF01F0E0F68D96C6E
:102BC00007F00108314041EA080141F00401D964ED
:102BD000996C314041F00401996411460139FDD1ED
:102BE000996C314041F00501996411460139FDD1DC
:102BF000BEF1010E4FEA5707E1D1A17E07F00107B0
:102C00004D1B012D55D0D96C3140394341F00401A1
:102C1000D964996C314041F004019964114601393D
:102C2000FDD1996C314041F0050199641346013B97
:102C3000FDD1023D13D03549354E8B6C334043F006
:102C400004038B641346013BFDD18B6C334043F08E
:102C500005038B641346013BFDD1013DEDD12B4BA8
:102C60002B4D596C294041F005015964996C29405C
:102C700041F00401996411460139FDD1996C294054
:102C800041F0050199641346013BFDD115E65D6CE9
:102C9000354045F005055D649D6C354045F0040503
:102CA0009D641546013DFDD1D3F80871C7F3400777
:102CB000BDE6596C314041F005015964D96C314091
:102CC000394341F00401D964E7E55A6C324042F0DF
:102CD00005025A649A6C324042F004029A64D3F8B6
:102CE00008519A6CC5F34005324042F005029A64DF
:102CF00000E75A6C324042F005025A64DA6C324006
:102D00003A4342F00402DA64B0E400BF000808402D
:102D1000FE3FFEFF8207F8B5044624D5274A284B1C
:102D200050682849284A294E58600D681068316853
:102D3000084400F03F011060471B186001F57C63F8
:102D4000BB4224D3224BC0F30B001844214BC1F1EA
:102D500040019B693160984701211F4B1F4A1B7836
:102D60001170022B23D0A30606D51D4B1D491A78DE
:102D70008B5C63F07F038B5414F4607F06D0184B98
:102D800018491A788B5C43F040038B54F8BD03213B
:102D90000125114B144A1B781048022B0570117045
:102DA000E1D1124B0121186802F056F9DBE705F07A
:102DB0003F05C5F14005BD42D5D8F2E7001000E05F
:102DC000D4100020E4100020E8100020DC100020C7
:102DD000EC100020B4DD0000F4200020E010002002
:102DE000EC200020F0200020F220002064060020CB
:102DF0000022114B70B51A7050B1104C1048A368E6
:102E00009847B0B902202369984780B9012070BD66
:102E100004460A4D0146AE6A1620B04721461920E5
:102E2000B0472B6920469847EB689847EEE7E36880
:102E30009847002070BD00BFF5200020B4DD0000E1
:102E4000152D0000224AF8B5904228BF1046214FA8
:102E5000214E3B780446D807B56A06D500211620D6
:102E6000A847F36A984781071ED421460120A84746
:102E700040BB0121194A3B781170DA0712D59B0734
:102E80000DD4174AB3691068164A00F03F01C0F329
:102E90000B001044144AC1F1400111609847012110
:102EA0001620A8472046F8BD736A98470C4A0021AF
:102EB0001368034419201360A84721460120A8473E
:102EC0000028D6D000231C46044A20461370F8BDC3
:102ED000A0252600F2200020B4DD0000F52000200F
:102EE000E8100020EC100020DC10002070B5A8B124
:102EF000154B1B7883B10124144D154A2146AB694B
:102F000014481460984738B92146AB6A1620984790
:102F1000B0FA80F0400970BD002070BD0B4D014635
:102F20000446AE6A1620B047EB6A9847830709D576
:102F30006B6A98470546084A1920136821462B44B6
:102F40001360B047012070BDF5200020B4DD000003
:102F5000DC100020EC100020E8100020024B034A97
:102F60009B691160184700BFB4DD0000DC10002031
:102F700010B5074C82B0E36A984710F0020005D004
:102F8000636A019302B0BDE81040184702B010BD5B
:102F9000B4DD00002DE9F843124B1B78012B07D05C
:102FA000114B124A1B6814681C1B2046BDE8F883AD
:102FB0004FF000090E4DDFF830800C4F0D4E02E04F
:102FC0002B78002BF1D085F800903278D8F80030BB
:102FD0003C68012AA3EB0404F2D1FFF7C9FF0444C3
:102FE000EEE700BFF2200020E8100020E4100020EF
:102FF000E0100020F3200020094B1B7813F00103A0
:1030000002D10278022A04D9FF234FF001100B707D
:10301000704704480B7002704FF00110704700BFFA
:10302000F2200020F420002070B50F4E0D463378BA
:103030000478012B13D084B1012C09D00024FF2186
:1030400000220A4B297034701A704FF0011070BDC5
:103050002046FFF7CDFE0028F0D00021F0E7002049
:10306000FFF7C6FEE7E700BFF3200020F2200020B4
:1030700010B50B4B0C461B780068012B07D00023C2
:103080001846084A206013704FF0041010BDFFF777
:10309000D9FE0028F3D020604FF0041010BD00BF0F
:1030A000F3200020F2200020F8B5214E0478337878
:1030B00004F0010403F001039C420D4613D0BCB997
:1030C0001C4B1F78012F04D0FF232B704FF00110F1
:1030D000F8BD2046FFF70AFF0028F5D0164B3470E4
:1030E0001B78022B1ED000232B704FF00110F8BD6F
:1030F000114B1B78022B0CD000231049104A0B8077
:10310000104911480B60114903700B601360536044
:10311000D6E70F4F3B78002BEED002F04DF800239E
:103120003B70E9E70B4B3946186801F095FFDAE789
:10313000F2200020F3200020F4200020F0200020C6
:10314000D4100020E8100020EC200020E410002023
:10315000D0100020640600202DE9F84F00262049F9
:10316000204A0B78204C127814F80380012AE65488
:1031700083F00103074642EA08080B7015D01B4A8A
:103180001B4B14681B68E41A002368F30703210A29
:1031900064F30F23220C61F31743200E62F31F63C5
:1031A00038713B600520BDE8F88F124DDFF83CB068
:1031B000DFF83CA0DFF8409002E02B78002BE3D052
:1031C0002E7099F80030DBF80040DAF80020012B6F
:1031D000A4EB0204F1D1FFF7CBFE0444EDE700BFFE
:1031E000EC200020F2200020F0200020E810002039
:1031F000E4100020E0100020F320002070B50678D5
:103200000C4616F0010514D1B20724D473070DD56E
:103210004FF0000C134A144B82F800C01E68596826
:1032200010780028F8D126606160043545F48030BC
:1032300070BD00200D4A137883F0010111700C4914
:103240000C4A1578CA5CC8542A4304F8012BB2070B
:103250004FF00105DAD5FFF79DFE043544F8040B65
:10326000D4E700BFE0100020D4100020EC200020A4
:10327000F0200020F22000202DE9F04100272A4A0A
:103280002A4E1378804683F001041470284A0C46B5
:10329000D55CD75433781D43FFF77CFE254B1B7854
:1032A000012B05D0244825706770A770BDE8F08118
:1032B000B8F80030DFF890C03C2B28BF3C23984280
:1032C00028BF1846DCF800E02570A770E21C60708B
:1032D00040B37346C51C194F2C44C3F30B03F95C70
:1032E000013302F8011B9442F7D133787044032B69
:1032F000CCF8000002D045F40030D7E7104B1A6834
:10330000DCF80030D31AB3F5805FF4D20D4B197896
:103310000129F0D10948C2F30B0210443170FFF7C4
:103320001DFEE8E70325E0E7EC200020F220002066
:10333000F0200020F420002003000200EC10002008
:10334000E8100020F3200020E410002008B5154B01
:103350001A782AB1144915480A68006802440A60BC
:103360000020134A18701178032906D0114B01214F
:103370001868BDE8084001F06FBE0F490A4B0868A5
:103380001B68C31AB3F5805FF0D20C4B1978012982
:10339000ECD10B4BC0F30B0018441170FFF7DEFDAE
:1033A000E4E700BFD0100020E4100020CC10002083
:1033B000F220002064060020E8100020F320002006
:1033C000EC1000204FF0FF324FF000082DE980484C
:1033D000DFF8D4A0DFF8D490DFF8D4B02D4E2E4D16
:1033E0002E4F83B00021012001F01EFE9AF800301C
:1033F00099F8001003F00102002A0DBF4FF0FF32D0
:10340000322284466FF0010C0029EBD1012B22D02F
:1034100034682B68E41A002CE4D02B68C3F30B004B
:10342000C0F58051A14228BF21461CF1020F05D0F2
:1034300013F03F0328D131F03F01D3D0184B009255
:103440001844184B19604FF0010389F8003001F05F
:103450007FFE009AC6E7CDE9002C02E09BF8003021
:103460007BB18BF800803B7831682C68012BA1EB95
:103470000404F3D1FFF77CFD9BF800300444002BDB
:10348000EFD1DDE9002CC6E7C3F140038B42A9D898
:103490001946D3E7E8100020E4100020F3200020B4
:1034A000EC100020CC100020F2200020D0100020D2
:1034B000E0100020002831D0F0B4002600F1FF3CDD
:1034C0003046174B174C5F68174B1EB3013E5A6CC2
:1034D000C50702EA04024CBF42F0050242F00402B2
:1034E0005A649A6C3D46224042F004029A64013DBF
:1034F000FDD19A6C3D46224042F005029A64013D9E
:10350000FDD10CF1FF3CBCF1FF3F4FEA5000DCD194
:10351000F0BC7047072611F8010BD8E7704700BFD1
:1035200088100020FE3FFEFF0008084000F08003E6
:1035300010F03F002DE9F04308BF40200D469146B2
:10354000002B34D0DFF8C4802E4D2F4E04464FF0B0
:10355000000CD8F80420A0F1080E00E0F4B1AB6C28
:103560001146334043F00403AB640139FDD16B6C69
:10357000A96C1746314041F00501C3F34003A9642B
:10358000013FFDD12146013CDB01744543EA5C0C5F
:10359000E4D109F801CB44B12046D7E7C0F10703D5
:1035A0000B442CFA03FC89F800C0BDE8F083174BEC
:1035B000144A5C68144915F801CBA0F1080E01E02B
:1035C0000028F2D0536C0CF001060B40334343F05B
:1035D00004035364936C26460B4043F00403936446
:1035E000013EFDD1936C26460B4043F005039364E6
:1035F000013EFDD1013870454FEA5C0CE0D1002856
:10360000D9D1D2E700080840FE3FFEFF8810002015
:103610002DE9F04F45087E4B05EB900583B00191F5
:1036200005445A6C05EBD005844600F00108C0F350
:103630004009C0F3800EC0F3C0077648764E0240C2
:1036400042F0050296F801A0347E5A649A6C05F0A7
:103650000105024042F004029A64BAF1000F00F042
:10366000DD809A6C024042F005029A645A6C024076
:1036700042EA080242F004025A649A6C024042F0A4
:1036800004029A649A6C024042F005029A645A6CF1
:10369000024042EA090242F004025A649A6C024073
:1036A00042F004029A649A6C024042F005029A6465
:1036B0005A6C024042EA0E0242F004025A649A6CCA
:1036C000024042F004029A649A6C024042F0050201
:1036D0009A645A6C02403A4342F004025A649A6C6B
:1036E000024042F004029A649A6C024042F00502E1
:1036F0009A645A6C02402A4342F004025A649A6C5B
:103700000025024042F004029A649A6C024042F0A2
:1037100005029A645A6C024042F004025A649A6CA0
:10372000024042F004029A649A6C024042F00502A0
:103730009A645A6C024042F005025A649A6C024044
:1037400042F004029A649A6C024042F005029A64C4
:103750005D6425466CB19A6C013D02EA000242F0BC
:1037600004029A649A6C02EA000242F005029A642A
:10377000F1D1274B274A986C104040F00400986420
:103780005F6C986CC7F34007104040F005009864E8
:10379000986C104040F004009864586C9D6C00F0E8
:1037A0000200154045F005059D649D6C154045F0EF
:1037B00004059D645D6CC5F3400540EA85009D6C81
:1037C0003843154045F0050501289D6400F0F2815D
:1037D0001421C140CD0700F152822134996C013C83
:1037E00001EA020141F004019964996C01EA0201C5
:1037F00041F005019964F1D105215964596CC0B2B9
:103800000A4042F005025A6403B0BDE8F08F00BFE1
:1038100000080840FE3FFEFF881000207268114635
:103820000139FDD1D3F848B011460BEA000B4BF03B
:10383000050BC3F848B00139FDD1D3F844B01146A7
:103840000BEA000B4BEA080848F00408C3F8448070
:10385000D3F8488008EA000848F00408C3F8488014
:103860000139FDD1D3F84880114608EA000848F034
:103870000508C3F848800139FDD1D3F844801146CA
:1038800008EA000848EA090848F00408C3F8448038
:10389000D3F8488008EA000848F00408C3F84880D4
:1038A0000139FDD1D3F84880114608EA000848F0F4
:1038B0000508C3F848800139FDD1D3F8448011468A
:1038C00008EA000848EA0E0E4EF0040EC3F844E081
:1038D000D3F848E00EEA000E4EF0040EC3F848E0BC
:1038E0000139FDD1D3F848E011460EEA000E4EF042
:1038F000050EC3F848E00139FDD1D3F844E00EEAE3
:10390000000E4EEA070747F004075F649F6C07400C
:1039100047F004079F641746013FFDD19F6C0740A5
:1039200047F005079F641746013FFDD15F6C0740D4
:103930003D4345F004055D649D6C054045F004057C
:103940009D641546013DFDD19D6C054045F0050582
:103950009D641546013DFDD15D6C054045F00405B3
:103960005D649D6C054045F004059D641546013D70
:10397000FDD19D6C054045F005059D641546013D52
:10398000FDD15D6C054045F005055D649D6C05400D
:1039900045F004059D641546013DFDD19D6C054033
:1039A00045F005059D641546013DFDD1A646C3F8C9
:1039B00044A094B19D6C1746054045F004059D64F4
:1039C000013FFDD19D6C1746054045F005059D64FE
:1039D000013FFDD1BEF1010EECD1734B734D986CDC
:1039E000284040F00400986410460138FDD1586C1E
:1039F000C0F3400E986C284040F0050098641046D3
:103A00000138FDD1986C284040F0040098641046BD
:103A10000138FDD1586CC0F34008986C284040F044
:103A20000500986410460138FDD1986C284040F09C
:103A30000400986410460138FDD1586C9F6CC0F3A7
:103A400040002F4047F005079F641746013FFDD116
:103A5000800040EA480040EA0E00012822D01421EC
:103A6000C140C90700F12E812134996C16462940C6
:103A700041F004019964013EFDD1996C164629403C
:103A800041F005019964013EFDD1013CEDD10522D3
:103A90005A645A6CC0B22A4042F005025A6403B01C
:103AA000BDE8F08F1CF0020740F0DB818CB1986C10
:103AB000284040F00400986410460138FDD1986C0D
:103AC000284040F00500986410460138FDD1013CC3
:103AD000EDD1052320253448344C4364019B1968FB
:103AE000436C01F0010E234043EA0E0343F004034C
:103AF0004364836C234043F0040383641346013B17
:103B0000FDD1836C234043F0050383641346013BDE
:103B1000FDD1013D0F444FEA5101E1D1436C07F063
:103B2000010723403B4343F004034364836C234079
:103B300043F0040383641346013BFDD1836C2340AF
:103B400043F005038364013AFDD101201CF0800F8E
:103B500002D0174B5B68B360317BC9B1124A134C7A
:103B6000536C7568234043F004035364936C234003
:103B700043F0040393642B46013BFDD1936C234037
:103B800043F0050393642B46013BFDD10139EDD190
:103B9000054A536C23F0011323F4404343F005031B
:103BA000536403B0BDE8F08F00080840FE3FFEFFFD
:103BB000001000E01CF0020040F00C816CB19D6C24
:103BC000013C05EA020545F004059D649D6C05EA8B
:103BD000020545F005059D64F1D1052320257A4AAB
:103BE0007A4C5364019B1968536C01F00107234020
:103BF0003B4343F004035364936C013D03EA040325
:103C000043F004039364936C084403EA040343F011
:103C100005034FEA51019364E6D100F0010301204E
:103C2000516C21400B4343F004035364936C2340D5
:103C300043F004039364936C234043F005039364BF
:103C40001CF0800F02D0624B5B68B360317B0029AF
:103C50009ED05D4A5D4C536C234043F00403536493
:103C6000936C013903EA040343F004039364936CF7
:103C700003EA040343F005039364F1D188E7757EFA
:103C8000002D53D01CF0020F41D1002C51D1052240
:103C90005A6421214C4A4D4C536C234043F0040399
:103CA0005364936C013903EA040343F004039364FF
:103CB000936C03EA040343F005039364F1D1424A91
:103CC000C0B266E7767E002E5ED01CF0020F48D1AF
:103CD000002C5CD10521596421243B493B4E4B6C9F
:103CE000334043F004034B648B6C1546334043F080
:103CF00004038B64013DFDD18B6C1546334043F0CA
:103D000005038B64013DFDD1013CEDD1D7E72126B0
:103D1000996C013E01EA020141F004019964996C39
:103D200001EA020141F005019964F1D1002C00F093
:103D3000F080254A2549936C013C03EA010343F0D6
:103D400004039364936C03EA010343F00503936453
:103D5000F1D105235364002DB1D01CF0020F98D08F
:103D6000ADE72127996C294041F00401996411467F
:103D70000139FDD1996C294041F005019964114642
:103D80000139FDD1013FEDD1002C00F0C2800E4978
:103D90000E4D8B6C2B4043F004038B641346013BA8
:103DA000FDD18B6C2B4043F005038B641346013B24
:103DB000FDD1013CEDD105234B64002E3FF47FAFD4
:103DC0001CF0020F88D07AE700080840FE3FFEFF93
:103DD000001000E04FF0000E20257746986C013D62
:103DE00000EA020040F004009864586CC0F3400000
:103DF00007444FEAC07040EA5E0E986C00EA020089
:103E000040F005009864E9D1986C104040F004003F
:103E10009864586C87EA5007986C17F0010F02EA13
:103E2000000242F005029A64019B14BF08200120A1
:103E300013B1C3F800E0347E7CB1374A3749936C44
:103E4000013C03EA010343F004039364936C03EA27
:103E5000010343F005039364F1D105222E4B5A640C
:103E6000EEE64FF000084FF0200EC146986C284057
:103E700040F00400986410460138FDD1586C9F6CE6
:103E8000C0F340002F4047F005079F641746013FED
:103E9000FDD18144BEF1010E4FEAC07040EA5808DE
:103EA000E4D1986C284040F0040098641046013832
:103EB000FDD1586C9F6CC0F340003D4045F00505B6
:103EC0009D64013AFDD180EA090313F0010F019BC3
:103ED00014BF0820012013B1C3F80080347EA4B1C0
:103EE00075680D4A0D49936C0B4043F004039364CD
:103EF0002B46013BFDD1936C0B4043F005039364CB
:103F00002B46013BFDD1013CEDD10522024B5A6409
:103F10001CE605225A64D2E600080840FE3FFEFF78
:103F200038B5044612480D4605F040FE70B91148F8
:103F300005F0BAFEA8B929460020FCF725FC224668
:103F40000D490020FCF720FC00BE38BD00200B4BC3
:103F50000B4A0C49FCF718FC064805F0A5FE0028A2
:103F6000E9D0094B064A07490020FCF70DFCE2E7BF
:103F70004C400120704001201CD60000ACD5000050
:103F800008DD0000D4D50000F0D5000010B5184BB6
:103F900086B00022186804A907F006FB48B1DDE9E5
:103FA0000412144B1B7831B1134805F0F9FC044698
:103FB000A0B906B010BD002AF6D119460E480392EA
:103FC00005F028FD039A04460028F2D010460B4B5A
:103FD0000B4A0C490094FCF7D7FBEAE70A4B084A66
:103FE000084900940020FCF7CFFB06B010BD00BFCD
:103FF000DC250120080000204C4001203CD60000B8
:1040000040DD0000D4D5000070D600002DE9F04F4F
:10401000A3B0EFF31080012383F31088A44B196839
:1040200019B94024A34AD170D4701A6801321A60B9
:1040300080F31088A04C2578032D41D99F4991F831
:104040009F0091F8913091F890200D9091F89E008A
:104050000C9091F89D000B9091F89C000A9091F8BB
:104060009B00099091F89A00089091F899000790A8
:1040700091F89800069091F89700059091F89600B5
:10408000049091F89500039091F89400029091F8B3
:104090009300019091F8921019A80091884908F0B6
:1040A000BFFDA91E19AB491022461029D4BF5818CC
:1040B00003F1100013F9011B984202F8021FF9D115
:1040C0008049814805F0FCFA002840F04985DFF876
:1040D0004C827E4C45467E490020FCF755FB0FCDB7
:1040E0000FC495E80F0084E80F00D8F81C70794ED3
:1040F00038687968BA68FB680FC63869A4F110039C
:10410000A6F11002306019467348E26005F07CFEAB
:10411000002840F0208598F803302BB1012B02D005
:104120006E4B139303E002236C4A1392137198F8B9
:10413000023023B1032B00F07E85022B01D1139AAC
:104140005371624B5B78022B00F00085032B00F06B
:10415000998013B90923139A93710023604A194671
:1041600010681A4607F0E4F8012803D001205D49E1
:10417000FFF7D6FE00235C4A194610681A4607F07E
:10418000D7F8012803D001205849FFF7C9FE584B42
:10419000584D1293584BDFF88881DFF88891DFF88B
:1041A00088B1564CDFF884A11093554B16A9002214
:1041B000186807F0F9F90146002867D1514BDAF881
:1041C00000001A88504B92B21B889BB29A4200F0B2
:1041D0008282434B40F00100CAF80000186807F0E3
:1041E00085FA002840F08E82484B1B7843B33A4B47
:1041F0009B7803F00303022B00F07E82109B18686B
:104200003D4B1F46109307F0FDFA334B06469B7853
:1042100003F00303022B14BF012302231793DAF8E0
:104220000030002800F05C8243F00203CAF800303E
:104230002D4B0021186807F059FA002840F0D2826F
:10424000FFF7A4FE00F094FE314B324E5B68DAF8C3
:10425000002018880121030A1B0153FA80F056F848
:10426000203023F0011323F44043002A18BF43F009
:10427000010343F0040346F82030274B186807F089
:1042800035FA92E70723139A937166E70023169E87
:10429000ADF85630B379033B072B50D8DFE813F065
:1042A000770148007201480031012101F7005B01EC
:1042B00050510120000D0840C4040020008100017D
:1042C000A8D60000FCDD00004C4001205021002059
:1042D00004D700003C2100207040012018E5002098
:1042E000404001204CD70000F43F01207CD7000063
:1042F0005C37012016E50020A83F012044A50020DE
:10430000102701207C6300207A63002020E5002034
:104310000000002000080840282601202CDE0000B4
:1043200014E5002010E5002008E5002038210020D9
:1043300000209D49FCF728FA00239C4A13709C4BEF
:104340001B88B9F800209BB292B29A423FF42DAF7D
:104350007F26B8F800309BB207E0FF2B08BF002390
:104360002A88665492B29A4204D09901625C013361
:104370007E2AF2D08F4FB8F8000039888E4B80B279
:1043800089B203EB811104EB8010FDF725FC3B881B
:104390008A4A9BB222F81300B8F8003001339BB26E
:1043A000A8F80030B8F800309BB2FF2B03D14FF0D3
:1043B0000003A8F80030B9F80030814901339BB2FE
:1043C000A9F800300B78BBB1794B1B88B9F80020F5
:1043D0009B1A9BB2FF2B0FD04FF000070F7029885C
:1043E000784B89B240221B78774804EB811105F0A5
:1043F0009BFA002840F0D4816E4A138801339BB2A7
:10440000138013889BB2FF2B04BF00231380BBF8DB
:10441000003001339BB2ABF800306C4B1B78002BA3
:104420002BD06B4BBBF800201B8892B29BB29A42F8
:1044300023D0684A4FF0000C11885F4889B24B1CAA
:104440009BB213801388614F9BB2FF2B04BF0023E4
:1044500013805F4A138801339BB213805E4B574A27
:104460001B7832F8112000EB8111574887F800C003
:1044700005F096FA002840F038814D4B1A88B9F8BB
:10448000003092B29BB29A427FF463AF8DE6474B05
:104490001B78002B3FF453AFF378802B00F0718230
:1044A000484BB2781B789A4200F01283404A128837
:1044B000B9F80010521A92B2FF2A00F05E822988E1
:1044C000402289B2404804EB811105F02DFA002802
:1044D0003FF435AF414B424A42490020FCF754F9C2
:1044E0002DE7B38903F47F43B3F5005F00F040820A
:1044F000B3F5045F7FF423AF3B490020FCF744F998
:104500001DE7B28902F47F43B3F5005F00F0EA8152
:10451000B3F5045F00F06882B3F5085F00F07082C5
:10452000B3F5C06F3FF40BAFC02A00F0C482C12ABC
:1045300040F0EB82338A052B7FF401AFB37B022B73
:104540007FF4FDAE728A29491F4805F00DFB002853
:104550003FF4F5AE50E2154B1B78002B3FF4EFAE65
:10456000F378802B00F0D9821B4AB37812789342FB
:1045700000F078821E4A12789A427FF4E0AEFEF78D
:10458000E5FEDCE61B490020FCF7FEF8D7E61A49F9
:104590000020FCF7F9F889220B480DF1560105F0CF
:1045A00033FB01262DE000BF14DA000020E50020D7
:1045B00012E500200CE500208465002084630020C3
:1045C0000EE500200A0000204C40012004E50020F8
:1045D00006E500200AE500200900002050D8000070
:1045E00018DD0000D4D50000C0D900000C00002068
:1045F000080000204CDA0000ACD7000001360A2E7B
:1046000026D0BDF856303341DF07F7D5F2B218A9EE
:1046100093480F9205F02CFA9DF960109DF86030D8
:1046200000299DF861000F9AC0F2C1800028E5D1F1
:10463000042E00F012818B4909780A29DED18949BC
:104640000A70324688490136FCF79EF80A2ED8D106
:1046500000260121854F2E80A8F800603E80844FFF
:10466000A9F800603970834F7E4B3E80824F402214
:104670003E80824FABF800603E80814F1B783970DE
:10468000804F77483E80804F3E80804F3E80804FF5
:104690003E80804F3970764F3E70298889B204EB96
:1046A000811105F041F9002840F0D08000267949B9
:1046B000794F0E70734980230988402289B2684877
:1046C00007EB811105F0DCF8002840F0B8800123E9
:1046D000724A137033E620F00100CAF8000083E547
:1046E00023F00203CAF80030AAE56D4B6D4A6E490B
:1046F0000020FCF749F8C0E6129B18686B4B1F4678
:10470000129380E5604ADAF80030118843F0010323
:10471000CAF80030664B89B233F811604B1C9BB26B
:1047200013805D4B324603EB8111624808F0A8FA12
:1047300032466049604805F01DFB00284ED1524BBF
:104740001B889BB2FF2B02D100234F4A1380504A93
:104750005049138801339BB213800B78002B3FF430
:1047600043AD4A4B1B8812889B1A9BB2FF2B3FF428
:104770003BAD00260E704349474F0988802389B21C
:104780004022374807EB811105F07AF800283FF402
:104790002BAD3046494B434A4349FBF7F5FF23E530
:1047A000474B404A40490020FBF7EEFF24E6002833
:1047B0007FF424AF032E00F05381424909780A297F
:1047C00000F09C81404909780A297FF417AF3E49DF
:1047D0000A7032463D49FBF7D7FF0FE73C49FFF728
:1047E0009FFBACE73246402E4FF0000628BF402228
:1047F0003346119237494FF0FF32194438680F930E
:1048000006F0D2FE01280F9B04D001203249FFF7A9
:1048100087FB0F9B179A01361344119AB242E9D1D4
:10482000179B2C4903FB02F20D48802305F052F838
:1048300000283FF405AD2949FFF772FB00E530463B
:104840001E4B274A1849FBF79FFF40E730461C4B99
:10485000234A1549FBF798FF28E70526D1E600BF54
:104860004C4001200A000020CCD7000012E50020B7
:104870000EE500200CE500200AE5002006E50020FA
:1048800004E50020806300207E6300207C6300201C
:104890007A63002078630020B823002020E5002000
:1048A000A4D800002CDD0000D4D500005C37012026
:1048B000B821002078210020704001207CD8000021
:1048C00050D80000090000200800002024D8000073
:1048D00070DA0000F820002098DA0000CCDA00003E
:1048E00018DD00000722A649A64805F01BF900289C
:1048F00037D1A54BA54A5A60A54AD361139B1868C6
:10490000002840F08B81139B5A79012AD3B200F022
:104910008381981E434243415B009D4A9370139BE1
:104920009A79072AD3B200F07581093B18BF012399
:104930005B00974A97485370139B1B79991E4B4213
:104940004B41D37005F0B0F9002840F01281904936
:10495000904805F059FA00283FF4F1AC8E49FFF772
:10496000DFFA8E4B8E4A8F490020FBF70DFFE6E4FD
:104970008D490020FBF708FFE1E401238B4A137007
:10498000DDE48B49B2680B888A489BB220F813207B
:104990000B88894A01339BB20B800B889BB2FF2B9B
:1049A00004BF00230B80138801339BB2138013884C
:1049B000824A12889B1A9BB2FF2B00F0BD807C4B71
:1049C000402219887E4B89B203EB81116D48802308
:1049D00004F056FF00283FF4B2AC7A4B704A71499C
:1049E0000020FBF7D1FEAAE407226549654805F0DF
:1049F000BBF800283FF4A3AC7349FFF791FAB0E786
:104A0000022272495F4805F08DF808BB4FF6FF712E
:104A1000F3896E4E03F00303327822F0030213434E
:104A200033705C4B1A898A4212D0130A68481B0102
:104A300053FA82F250F82210337821F00111C3F3B7
:104A4000400321F440410B4343F0040340F822307B
:104A500000214C4805F010F900283FF470ACCBE77A
:104A60000426CEE55B4ABBF80010128889B292B2E8
:104A7000914266D0584A59481188128889B200EB91
:104A80008111574892B230F812203E4804F088FF56
:104A9000002840F0D88050490B8801339BB20B802E
:104AA0000B889BB2FF2B00F0CB804A4A138801335E
:104AB0009BB2138043E4338A042B7FF440AC728AA8
:104AC0004849304805F050F800283FF438AC93E7E7
:104AD0002A8892B29201A25C072A46D02A884249CB
:104AE000013292B22A802A8892B2FF2A04BF0022A1
:104AF0002A800A88013292B20A80D7E43B490A70C0
:104B000032463B49FBF740FE78E500211D4805F0A1
:104B1000B3F800283FF413AC23E70023354A1946C5
:104B200010681A4606F004FC01283FF408AC012086
:104B30003149FFF7F5F902E40123304A1370FFF71A
:104B4000FEBB01232E4A1370FFF7F9BB0823139A0B
:104B50009371FFF702BB2B49FFF7E2F9FFF7DBBACE
:104B60002949FFF7DDF9FFF7B2BA012227490A7098
:104B70009CE4274B0A4A0B490020FBF705FEE6E6BA
:104B800018E500204C4001203C210020702100202D
:104B9000502100207040012008D900004CD90000AD
:104BA00018DD0000D4D500006CD900000EE500200F
:104BB00080630020B82100207C6300207A630020FD
:104BC000B82300207CD8000024D9000074210020E4
:104BD0000008084006E500200AE500208465002062
:104BE000846300209C00002012E5002009000020C2
:104BF000F8D70000F43F01207CD700007863002044
:104C000004E5002024D70000ECD60000841000202A
:104C1000F0D5000003238CE603237EE641F28832C0
:104C20000121184B05F0CAFA00283FF46CAE164972
:104C3000FFF776F967E60123139A5371FFF781BAFC
:104C4000124B188031E7124B124A00201249FBF731
:104C50009BFD0E4A138801339BB2138013889BB2CD
:104C6000FF2B02D10023094A13800C4A0A491388FA
:104C7000002001339BB21380094B064AFBF784FDE9
:104C8000FFF75DBB70210020E0D800000AE500209E
:104C9000A4D8000018DD0000D4D5000006E50020EF
:104CA000C4D8000000B5837983B00A2B019011D0DD
:104CB00000230F4A01A910681A4606F039FB0128A3
:104CC00005D000200B4B0C4A0C49FBF75DFD03B0EF
:104CD0005DF804FB0A4B82781B789A42E8D10023E6
:104CE000084A194610681A4606F022FBE0E700BFA2
:104CF00010270120E8DA0000F0DC0000D4D5000025
:104D000008000020282601200379202B18D8012B29
:104D10005BD9023B10B51E2B11D8DFE803F01A1047
:104D2000271010103E101010101010104610101008
:104D30001010101010101010101010104E0010BD98
:104D4000402B05D10020214B214A2249FBF71CBDF5
:104D50007047214B0021186806F0E6FB0128EED0D1
:104D6000BDE8104001201D49FFF7DAB8C3680146CD
:104D70009B78083103F00303022B0CBF184B194B2F
:104D8000186800231A4606F07BFB0128D7D0BDE83F
:104D9000104001201449FFF7C3B80020BDE81040BF
:104DA000124B0B4A0B49FBF7EFBC0020BDE810404B
:104DB0000F4B074A0749FBF7E7BC0020BDE810404E
:104DC0000C4B034A0349FBF7DFBC7047D0DB000004
:104DD000DCDC0000D4D500004040012048DB0000AE
:104DE0005C370120A83F01201CDB00006CDB0000C9
:104DF0008CDB0000ACDB0000022800D07047024BC7
:104E00000248596805F028BDECDD0000444001204F
:104E10000020704730B40025084B094A094C106047
:104E2000DA6825608A429A68074C38BFD9608A429E
:104E3000216088BF9960002030BC70477C2501202C
:104E40006C2501206825012064250120014B18688C
:104E5000704700BF6825012002207047162839D00E
:104E60001928844636D0012831D12DE9F0471C4B52
:104E7000DFF874809E464446DFF870900D464E463B
:104E8000DF69BEE80F000FC49EE80F0084E80F0042
:104E900038687968BA68FB68DFF854A00FC63869CB
:104EA000614630605346284641F28832C9F804A072
:104EB000C8F81C9005F082F970B94146094804F021
:104EC000A3FF003818BF01204042BDE8F0876FF013
:104ED00003007047002070474FF0FF30F5E700BF38
:104EE000D8DE0000184601203CE5002028E500201F
:104EF00024E5002030B500240B480C4A436883B0F9
:104F0000146013B9002003B030BD04F0CDFE054697
:104F10000028F7D02046064B064A07490095FBF7C4
:104F200033FC4FF0FF30EEE71846012070250120DA
:104F3000F4DB000074DD0000D4D5000000234FF046
:104F4000FF3130B4054A064C064DC2E90033C2E9D0
:104F5000021328602160184630BC70477C25012070
:104F6000742501207025012008B5FEF72BFA00BF3B
:104F7000264A274B10681A68824238D02DE9F04340
:104F8000DFF89CE0234F1968DEF800503C6881424E
:104F9000A5EB040226D21968411A0AB301B31968B5
:104FA00088421DD0DFF87C801B4ED8F8001001EB42
:104FB000040C00E0E2B11C689146611C196019689C
:104FC000345DC1F30D01196019680CF8014B814281
:104FD00002F1FF32EED15AB10135A5EB09053D6072
:104FE000BDE8F0831E6800F58041891BD5E7704756
:104FF00000230A4A3B601268CEF80030C8F800303F
:10500000002AEDD0BDE8F0430220104760E5002003
:105010005CE500206825012064E500207025012062
:10502000642501206C25012001280CD108B569B93F
:10503000084B1146186806F059FB00280CBF6FF0AA
:105040000100002008BD6FF0030070476FF00300FF
:1050500008BD00BF7426012008B5094B1B688342B8
:1050600002D06FF0030008BD0129FAD10023054AE0
:10507000194610681A4606F05BF9002008BD00BF0B
:1050800064060020742601200379202B15D8032BF9
:1050900022D9043B1C2B1FD8DFE803F0201E1E1E64
:1050A000371E1E1E1E1E1E1E3E1E1E1E1E1E1E1EE7
:1050B0001E1E1E1E1E1E1E1E4500402B0DD11F4B08
:1050C0001B684BB1802018471D4A1C49536809686A
:1050D0000133536000292ED170477047194A1A498D
:1050E000136809680133C3F30D038B42ECD010B48D
:1050F000116884684B1C136013681448C3F30D03D4
:10510000445413605DF8044B70470C4B1B68002B34
:10511000E2D04FF400701847084B1B68002BDBD01F
:105120004FF480701847064A044913680968013330
:1051300013600029D0D02020084700BF702501202F
:105140007C25012060E500205CE5002064E500206E
:10515000002330B50C460546114A83B010686946F5
:105160001A46CDE9005406F0E3F8012805D00020E6
:105170000C4B0D4A0D49FBF707FB00230C4A19465F
:1051800010681A4606F0D4F80A4B5A68A2421A6808
:1051900038BF5C60A24288BF1C6003B030BD00BF56
:1051A000DC25012020DC0000A0DD0000D4D50000BB
:1051B000282601207425012010B50024094B82B057
:1051C0001868694623462246CDE9004406F0B0F847
:1051D000012805D02046044B044A0549FBF7D4FAC0
:1051E00002B010BDDC25012050DC00008CDD000089
:1051F000D4D500000321002210B582B0404B0091AD
:105200000120114606F016F83E4B186000285BD0CE
:10521000032100223C4B00910120114606F00AF8C0
:105220003A4B01461860002852D000240121384B27
:105230004FF40060374A009405F0FCFF364B0146FE
:105240001860002847D000240221344B4FF400603E
:10525000334A009405F0EEFF324B014618600028F7
:105260003CD000240421304B1420304A009405F037
:10527000E1FF2F4B01461860002832D003210022A5
:105280002C4B00910120114605F0D4FF2A4B01461A
:10529000186048B303210022284B009101201146D9
:1052A00005F0C8FF264B0146186000B30024082112
:1052B000244B0120244A009405F0BCFF234B0146F7
:1052C0001860B8B102B010BD014600F079F89FE750
:1052D00000F076F8A9E700F073F8B4E700F070F892
:1052E000BFE700F06DF8C9E700F06AF8D2E700F018
:1052F00067F8DBE702B0BDE8104000F061B800BF1E
:10530000F83F012040400120AC3F0120F43F012044
:10531000603F012060370120A83F012014370120A1
:10532000142701205C370120C8260120782601209F
:10533000102701202C26012074260120E0250120C1
:1053400028260120942501208C250120DC25012020
:1053500010B5044600F036F82046BDE81040FEF7D0
:1053600055BE00BF30B501240D480E4A03680E4DEE
:1053700085B01919CDE901250C4B01604FF400727D
:105380000B490C48009406F019FD0B4B186008B14E
:1053900005B030BD014605B0BDE8304000F010B8A2
:1053A0001446012078DE0120A4400120F8DD000031
:1053B00080DC000051530000A0400120FFF71ABF1D
:1053C00000BE704738B5164C4FF0FF31206806F02C
:1053D0008DF9012803D000212068FFF7F1FF114B60
:1053E0001A7802B138BD01221A70FFF7E7FF0E4D9F
:1053F0002B68013B2B60002BF4D0002320681A4659
:10540000194605F095FF0128F2D000212068FFF72A
:10541000D7FF2B68013B2B60002BEED138BD00BFBE
:105420000C460120104601201446012038B5002307
:105430000C4D0D4C01214FF480700C4A2B602370F1
:1054400005F04EFF0A4B186038B1FFF78BFF00F0F4
:1054500037F806F0A3FD002038BD0146FFF7B0FF86
:10546000F3E700BF1446012010460120C445012087
:105470000C460120802330B4034D044C05600C60C1
:10548000136030BC704700BF6445012064430120B5
:10549000802330B4034D044C05600C60136030BCB5
:1054A000704700BF044301200441012010B50446A9
:1054B000FFF788FF2046BDE81040FFF755BD00BF4D
:1054C00030B501240D480E4A03680E4D85B01919F8
:1054D000CDE901250C4B01604FF400720B490C48DB
:1054E000009406F06BFC0B4B186008B105B030BDA2
:1054F000014605B0BDE83040FFF762BF1446012009
:1055000078E601204C460120D4DE00008CDC00004F
:10551000AD5400004846012000BEFEE71EF0040F17
:105520000CBFEFF30880EFF3098001490847000042
:10553000C15500000F4B1968EFF309821EF0100FE0
:1055400008BF22ED108A22E9F04FEFF30B8342F8F7
:10555000043D0A604FF0100080F31188BFF34F8FB5
:10556000BFF36F8F06F076FE4FF0000080F31188D6
:1055700000F002B830C80120074801680A6802CA72
:1055800081F30B88B2E8F04F1EF0100F08BFB2ECA9
:10559000108A82F30988704730C8012010B5EFF3F4
:1055A0001184102383F3118806F044FE18B14FF0E4
:1055B0008052024B5A6084F3118810BD00ED00E068
:1055C000836913F8023C022B03D0032B00D900BEE1
:1055D0007047FFF7D1BF00BF70B44FF080756FF018
:1055E0000204094E283122F0010240F80C6C40F808
:1055F000045C40F8244C40F8203C40F8082C70BC77
:1056000040F8481D704700BF19550000EFF31181A5
:10561000102383F31188084A13680133012B1360A8
:1056200000D07047054A064B11605B68C3F308035E
:10563000002BF6D000BE7047B0460120AC460120DA
:1056400000ED00E0064A13680BB900BE1368013B89
:1056500013601BB9034B1B6883F31188704700BFAD
:10566000B0460120AC46012080B3194B9A8990B214
:10567000120409D4BFF34F8F30BFBFF36F8F62B6F0
:10568000BFF36F8F72B670474AF202514FF0000CB1
:10569000B3F8FE23A3F8FE1392B242F42542A3F816
:1056A0000CC0A3F8FE23BFF34F8F30BFBFF36F8F43
:1056B00062B6BFF36F8F72B6B3F8FE23A3F8FE1382
:1056C00092B242F425429881A3F8FE23704700BFAE
:1056D00000E0014008B572B606F0A6FC0120FFF715
:1056E000C3FF62B6BDE8084006F0A6BC0D4B0E4AEB
:1056F0001B68A2FB03239B09013BB3F1807F00D30E
:1057000070474FF0E0224FF0F00C0020072110B45A
:10571000064C536184F823C0906111615DF8044B1D
:10572000704700BF90510120D34D621000ED00E0A2
:10573000F02208B50B4B83F82220FFF7D7FF0A4A67
:10574000536B43F04043536362B6BFF36F8FEFF385
:10575000148C2CF0040C8CF31488BFF36F8F02DFD1
:1057600000BEFDE700ED00E000EF00E0EFF3038393
:10577000103B190603F0FF0205D5084BDB685B05FB
:1057800000D500BE704702F1604303F5614393F812
:1057900000331B09F1D100BEEFE700BF00ED00E0D0
:1057A000194B1B88012B00D0704710B590F82220B0
:1057B0008AB0042A14BF82218021C36804698DF84D
:1057C0000620028D1B1B042A03938DF8071017D0A7
:1057D000052A12D0032A40F2DC5308BF002390F8B8
:1057E00024C0C26901A90920ADF808308DF804C0B1
:1057F000069201F0EDFD0AB010BD40F2DF53EEE776
:1058000040F2DE53EBE700BF54480120164B1B88E3
:10581000012B00D0704700B590F822208BB0032AEE
:105820001ED0002A0CBF4FF0820E4FF0810E018D6A
:1058300040F2DC53012908BF002390F824C08DF802
:105840000620C26901A90A208DF807E08DF804C07E
:105850000692ADF8083001F0BBFD0BB05DF804FB1B
:105860004FF0800EE3E700BF5448012010B5044616
:1058700031B900F027FDC3050AD54FF4807010BD83
:1058800000F098FD204600F0E1FDC0F30A0010BDD5
:10589000204600F04BFD00F07F0010BD2DE9F843DD
:1058A0004F4B90F82470044633F817300D469BB2E6
:1058B000022B4ED000F0A6FB2946204600F0E0FB6C
:1058C0002946204600F01AFC2946204601F064FDD6
:1058D0002946204600F06EFD642307FB03F3DFF842
:1058E000088105EB850203EB4203434459884FEAE4
:1058F0008509642607FB06F6A94406EB49062046FF
:10590000464400F08BFD2046F18800F0BBFD2046A8
:10591000318900F0CFFD2046002100F04BFD2946E3
:10592000204600F06FFE2946204601F021FD294661
:10593000204600F00BFE2946204600F00DFC2946CB
:10594000204600F027FC29462046BDE8F84300F039
:105950003FBC244E56F8210008B105F0E7FA0023B9
:105960002946204646F8253002F0EAFC064629463C
:10597000204694F8247000F045FB2946204600F0AC
:105980007FFB2946204600F0B9FB013E2946204610
:1059900001F002FDB6B22946204600F00BFD012EB3
:1059A00010D8642307FB03F3DFF83C8005EB850286
:1059B00003EB4203434459884FEA850941F480616F
:1059C000598096E764230A2207FB03F302FB0533A1
:1059D000DFF814804FEA85094344598889E700BFFE
:1059E000004D012030470120CC46012070B5344BDA
:1059F00090F82420054633F812300E469BB2022B55
:105A000054D03146284601F0C7FC3146284600F004
:105A1000F9FA3146284600F033FB3146284600F0BB
:105A20006DFB48F22F034FF400420021284600F09E
:105A30009DF90021284600F063F910F02F04F8D1F9
:105A40003146284600F0B6FC2146284600F0E6FC28
:105A50002146284600F016FD2146284600F02AFD82
:105A60002146284600F0A6FC3146284600F0CAFD33
:105A70003146284601F07CFC3146284600F066FDA0
:105A80003146284600F06AFE3146284600F084FE82
:105A90003146284600F060FB3146284600F07AFB8C
:105AA00031462846BDE8704000F092BB054C54F8E2
:105AB000210008B105F03AFA002344F82630A0E7A7
:105AC000004D01203047012070B5012206460D46E9
:105AD0004FF6FF7400F0FCFD2946304600F002FD51
